:020000040000FA
:100000000C9496020C94BE020C94BE020C94BE0298
:100010000C94BE020C94BE020C94BE020C94BE0260
:100020000C94BE020C9492170C94BE020C94BE0267
:100030000C94BE020C94BE020C94BE020C94BE0240
:100040000C9429160C94BE020C94F7150C94D1153F
:100050000C94BE020C94BE020C94BE020C94BE0220
:100060000C9473160C94BE024E414E494E4954599D
:10007000494E46CDCCCC3D0AD7233C17B7D1387773
:10008000CC2B329595E6241FB14F0A000020410089
:1000900000C84200401C4620BCBE4CCA1B0E5AAED3
:1000A000C59D7400407A10F35A00A0724E180900E2
:1000B00010A5D4E80000E87648170000E40B5402CD
:1000C0000000CA9A3B000000E1F505000080969808
:1000D00000000040420F000000A086010000001058
:1000E0002700000000E8030000000064000000009A
:1000F000000A00000000000100000000002C76D87B
:1001000088DC674F0823DFC1DFAE59E1B1B796E560
:10011000E3E453C63AE651997696E8E6C28426EBC4
:10012000898C9B62ED407C6FFCEFBC9C9F40F2BAD7
:10013000A56FA5F490055A2AF75C936B6CF9676D6F
:10014000C11BFCE0E40D47FEF520E6B500D0ED90C4
:100150002E0300943577050080841E080000204E91
:100160000A000000C80C333333330F986E1283112A
:1001700041EF8D2114893BE65516CFFEE6DB18D101
:10018000844B381BF77C1D901DA4BBE424203284D3
:10019000725E228100C9F124ECA1E53D27617574EE
:1001A0006F5F666F637573006E65775F73616D7007
:1001B0006C6500005EBCE2613FDD83C29C7E20A3D3
:1001C000FD1F41009D23BE46DB65F88C11AF32CA8E
:1001D00057E97400000000240027002A00000000F6
:1001E0000023002600290000000008000201000092
:1001F00003040700000000000000004172647569FC
:100200006E6F20536F6674776172652056657273E6
:10021000696F6E3A20005265636F6D6D616E642088
:10022000746F20686F6D65207468652073746167F2
:100230006520696620746869732069732074686535
:100240002066697273742072756E004162736F6C00
:1002500075746520706F736974696F6E206F6620A6
:10026000737465707065725F6F70746963733A2040
:1002700000737465707065725F6F7074696373206A
:100280006973206672656500737465707065725F6E
:100290006F707469637320697320627573792E2E91
:1002A000207761697400537461676520686F6D65BC
:1002B000642C2072657365742074686520616273B4
:1002C0006F6C75746520706F736974696F6E0073FD
:1002D0007465707065725F6F7074696373206973A1
:1002E000206672656500737465707065725F6F700B
:1002F0007469637320697320627573792E2E207779
:100300006169740054656D70657261747572652001
:1003100069732073657420746F20004D6178696D76
:10032000756D2074656D7065726174757265206994
:1003300073203130302043004162736F6C757465F7
:1003400020706F736974696F6E206F6620737465B7
:10035000707065725F6F70746963733A20007374B4
:1003600065707065725F6F70746963732069732064
:100370006672656500737465707065725F6F707426
:1003800069637320697320627573792E2E207761FB
:1003900069740063617074757265006175746F5F74
:1003A000666F637573006465666F67676572206F5B
:1003B0006666006465666F67676572206F6E006CC5
:1003C0006967687473206F6666006C696768747328
:1003D000206F6E00696E63756261746F72206C6F5E
:1003E0006720636C656172656400496E6375626164
:1003F000746F7220686973746F7279005049206F4E
:100400006666005049206F6E005556206F66660084
:100410005556206F6E00696E6375626174696E6710
:1004200000676F696E6720746F20696E6375626123
:10043000746F722073637265656E0053656E736FBF
:100440007220646973636F6E6E65637465642C20DB
:100450006465666F67676572206F666600446566EF
:100460006F67676572206566666F72742069733A9C
:10047000200048656174696E67206566666F7274F6
:100480002069733A200053656E736F72206469733C
:10049000636F6E6E65637465642C20696E6375624C
:1004A00061746F72206F66660053656E736F7220A1
:1004B000646973636F6E6E65637465642C20696E26
:1004C00063756261746F72206F66660074656D702B
:1004D0002073617665640068656172746265617439
:1004E00000736572766F20616E6420736372656558
:1004F0006E206F6666000102040810204080010231
:10050000040810200102040810200000000025004B
:1005100028002B0004040404040404040202020260
:1005200002020303030303034B19F02811241FBE27
:10053000CFEFD8E0DEBFCDBF14E0A0E0B1E0E8E946
:10054000F4E602C005900D92A43AB107D9F727E06E
:10055000A4EAB4E001C01D92AF36B207E1F712E0A1
:10056000C5E9D2E004C02197FE010E943E30C439A3
:10057000D107C9F70E94AB1A0C943F320C940000CB
:10058000CF93DF93EC018AAD882359F1888D998D43
:10059000892B39F12C853D854E855F8560E070E0C3
:1005A000CB010E94F02E6C877D878E879F872889DC
:1005B00039894A895B8960E070E0CB010E94F02EA6
:1005C000688B798B8A8B9B8B2C893D894E895F89BF
:1005D00060E070E0CB010E94F02E6C8B7D8B8E8BE7
:1005E0009F8B198E188EDF91CF9108958F929F92D5
:1005F000AF92BF92CF92DF92EF92FF920F931F9331
:10060000CF93DF93EC011AAA1BAA1CAA1DAA812C66
:10061000912C8FE7A82E83E4B82E8EAA9FAAA8AEAD
:10062000B9AE8AAD882309F444C00E8D1F8DF80140
:10063000C080D180E280F380A5019401C701B6019A
:100640000E9405301816D4F4F80180829182A282AB
:10065000B3828EA09FA0A8A4B9A4CEA8DFA8E8ACBE
:10066000F9ACA7019601C501B4010E940530181626
:10067000A4F4CEA2DFA2E8A6F9A61BC020E030E0D9
:10068000A901C701B6010E940E2D87FFE2CFF80134
:100690001082118212821382DCCFCAA8DBA8ECA8D8
:1006A000FDA8A7019601C501B4010E940E2D87FD8A
:1006B000E0CFDF91CF911F910F91FF90EF90DF90EE
:1006C000CF90BF90AF909F908F9008950895089518
:1006D0000895DC01ED91FC910190F081E02D0994E9
:1006E000AF92BF92CF92DF92EF92FF920F931F9340
:1006F000CF93DF936C017B018B01040F151FEB017E
:100700005E01AE18BF08C017D10759F06991D60134
:10071000ED91FC910190F081E02DC6010995892BA6
:1007200079F7C501DF91CF911F910F91FF90EF9065
:10073000DF90CF90BF90AF900895FC01538D448D12
:10074000252F30E0842F90E0821B930B541710F07C
:10075000CF96089501970895FC01918D828D981789
:1007600061F0A28DAE0FBF2FB11D5D968C91928D61
:100770009F5F9F73928F90E008958FEF9FEF089592
:10078000FC01918D828D981731F0828DE80FF11D5B
:10079000858D90E008958FEF9FEF0895FC01918D76
:1007A000228D892F90E0805C9F4F821B91098F736F
:1007B0009927089584EB95E00E94CE0321E0892BD0
:1007C00009F420E0822F089580E090E0892B29F041
:1007D0000E94DA0381110C9400000895FC01A48D9D
:1007E000A80FB92FB11DA35ABF4F2C91848D90E053
:1007F00001968F739927848FA689B7892C93A08936
:10080000B1898C91837080648C93938D848D9813BF
:1008100006C00288F389E02D80818F7D8083089552
:10082000EF92FF920F931F93CF93DF93EC0181E040
:10083000888F9B8D8C8D98131AC0E889F9898081E7
:1008400085FF15C09FB7F894EE89FF896083E8891A
:10085000F98980818370806480839FBF81E090E00C
:10086000DF91CF911F910F91FF90EF900895F62E99
:100870000B8D10E00F5F1F4F0F731127E02E8C8D33
:100880008E110CC00FB607FCFACFE889F989808178
:1008900085FFF5CFCE010E94EE03F1CFEB8DEC0F7B
:1008A000FD2FF11DE35AFF4FF0829FB7F8940B8F95
:1008B000EA89FB8980818062CFCF0F931F93CF930A
:1008C000DF938C01D0E0C0E0F801EC0FFD1F6491D4
:1008D000662341F084EB95E00E941004892B11F00F
:1008E0002196F2CFCE01DF91CF911F910F91089504
:1008F000CF93DF93EC01888D8823B9F0AA89BB8957
:10090000E889F9898C9185FD03C0808186FD0DC041
:100910000FB607FCF7CF8C9185FFF2CF808185FF62
:10092000EDCFCE010E94EE03E9CFDF91CF91089584
:10093000833081F028F4813099F08230A9F0089555
:100940008730A9F08830C9F08430B1F480918000FC
:100950008F7D03C0809180008F7780938000089501
:1009600084B58F7784BD089584B58F7DFBCF80914A
:10097000B0008F778093B00008958091B0008F7D94
:10098000F9CFCF93DF93282F30E0F901E951FE4FE3
:100990008491F901EA50FB4FD491F901EC5EFA4FD2
:1009A000C491CC23A1F081110E949804EC2FF0E0B7
:1009B000EE0FFF1FE352FE4FA591B491EC91ED2392
:1009C00081E090E009F480E0DF91CF91089580E02C
:1009D00090E0FACF1F93CF93DF93282F30E0F901F7
:1009E000E951FE4F8491F901EA50FB4FD491F9018E
:1009F000EC5EFA4FC491CC23A9F0162F81110E940E
:100A00009804EC2FF0E0EE0FFF1FE65FFA4FA59180
:100A1000B4918FB7F894EC91111108C0D095DE23F2
:100A2000DC938FBFDF91CF911F910895DE2BF8CF1C
:100A3000CF93DF9390E0FC01EA50FB4F24918C5E52
:100A40009A4FFC0184918823C9F090E0880F991F88
:100A5000FC01ED52FE4FA591B491FC01E65FFA4F07
:100A6000C591D49161110DC09FB7F8948C912095D8
:100A700082238C938881282328839FBFDF91CF9185
:100A80000895623051F49FB7F8943C91822F80957D
:100A900083238C93E8812E2BEFCF8FB7F894EC91C2
:100AA0002E2B2C938FBFEACF8091B305811122C0EA
:100AB000E8E9F5E080EB95E03BE027E5348325832A
:100AC00033968E179F07D1F78EE380939905109286
:100AD000970510929605109270001092B00082E077
:100AE0008093B1001092B20081E087BB80937000C8
:100AF0008093B30580918E068823A1F061E086E0A3
:100B00000E941805E0918E068E2F90E0FC01EE0FFA
:100B1000FF1FE80FF91FE856FA4F8081807E86603C
:100B20008062808380918E0608951F93CF93DF9318
:100B3000182FEB0161E00E941805209739F460E05E
:100B4000812FDF91CF911F910C94EA04CF3FD10503
:100B500011F461E0F5CFE12FF0E0E951FE4FE491AF
:100B6000E33031F140F4E130B1F0E230E1F0C0388F
:100B7000D1057CF7E4CFE73029F1E83059F1E430D2
:100B8000B1F780918000806280938000D0938B00C9
:100B9000C0938A0004C084B5806884BDC7BDDF915E
:100BA000CF911F91089584B5806284BDC8BDF7CFF1
:100BB00080918000806880938000D0938900C093EA
:100BC0008800EDCF8091B00080688093B000C09322
:100BD000B300E5CF8091B00080628093B000C093F5
:100BE000B400DDCF3FB7F89480915B0590915C0530
:100BF000A0915D05B0915E0526B5A89B05C02F3F6D
:100C000019F00196A11DB11D3FBFBA2FA92F982F32
:100C10008827BC01CD01620F711D811D911D42E02D
:100C2000660F771F881F991F4A95D1F708958F92F5
:100C30009F92AF92BF92CF92DF92EF92FF926B01A1
:100C40007C010E94F2054B015C01C114D104E10456
:100C5000F104B9F00E94F205681979098A099B0923
:100C6000683E73408105910580F321E0C21AD108E6
:100C7000E108F10888EE880E83E0981EA11CB11CE3
:100C8000E4CFFF90EF90DF90CF90BF90AF909F9018
:100C90008F9008952FB7F89460915705709158057B
:100CA0008091590590915A052FBF08950F931F9376
:100CB0000E944A066093BC057093BD058093BE05F3
:100CC0009093BF0584EB95E00E94AC0397FF1DC095
:100CD0000E944A060091BC051091BD052091BE05F9
:100CE0003091BF05601B710B820B930B0091B8050F
:100CF0001091B9052091BA053091BB0560177107B5
:100D000082079307F8F28FEF9FEF1F910F910895DD
:100D10002091E504260F3327331F21323105ECF4EF
:100D200020912E05FC0190E080E0243069F082E003
:100D30000895A091E5042191AC014B535B4FA40FA2
:100D4000B52FB11D2C930196861798F38091E50479
:100D5000680F6093E50480E0089581E008951092A3
:100D60002E0581E080932D051092080561E082E157
:100D70000E94EA0461E083E10E94EA04E9EBF0E00A
:100D800080818E7F808380818D7F808388E48093C3
:100D9000B80085E48093BC000895CF93DF9391E081
:100DA0009093C4048823B9F0C091B800D091BA00E0
:100DB0008091BC008A7B8093BC0060E082E10E944D
:100DC000EA0460E083E10E94EA040E94AF06D09347
:100DD000BA00C093B800DF91CF9108950895E091D3
:100DE000660580916505E81730F4F0E0EC55FB4F9F
:100DF000808190E008958FEF9FEF089590916605B0
:100E0000809165052FEF3FEF981748F4E92FF0E048
:100E1000EC55FB4F208130E09F5F90936605C90140
:100E200008958091650590916605891B990B089539
:100E3000CF92DF92EF92FF920F931F93CF93DF93A6
:100E40007C01CB018A0120913405222389F0EB013A
:100E50006B01C40ED51ECC15DD0569F06991D70173
:100E6000ED91FC910190F081E02DC7010995F3CF40
:100E7000642F0E948806C801DF91CF911F910F91C6
:100E8000FF90EF90DF90CF900895CF93DF931F9264
:100E9000CDB7DEB76983209134052223F9F0209184
:100EA0006305203258F021E030E0FC0133832283D7
:100EB00090E080E00F90DF91CF91089580916405DC
:100EC000E82FF0E0EB5CFA4F998190838F5F80937D
:100ED00064058093630581E090E0ECCF61E0CE0192
:100EE00001960E948806F7CFCF92DF92EF92FF9291
:100EF0000F931F93CF93DF93FC01C48121E02093D4
:100F00003405C093550510926405109263058385DE
:100F1000682B81E596E00E944507D0916305D132A8
:100F200008F092C00E94F2056B017C0180912E05B1
:100F3000811165C082E080932E0581E080932D05AC
:100F40008FEF80932C0510922B05D0932A05A5E3F3
:100F5000B5E0EAE0F5E080E0D81385C0109209051D
:100F600080910905CC0FC82BC09309058091080515
:100F7000813009F07CC0109208050E94F2056B01D7
:100F80007C01809109058093BB0080913005909190
:100F90003105A0913205B0913305892B8A2B8B2B1B
:100FA00099F00E94F20500913005109131052091D1
:100FB0003205309133056C197D098E099F0906179A
:100FC000170728073907E0F18091BC0083FDD9CFCE
:100FD00085EC8093BC000E94F2056B017C0180913E
:100FE0002E05823009F445C080912C058F3F61F1B8
:100FF00080912C05803241F180912C0525C0809193
:10100000300590913105A0913205B0913305892BBF
:101010008A2B8B2B09F48ACF0E94F20500913005B0
:101020001091310520913205309133056C197D09FD
:101030008E099F09061717072807390708F076CF8A
:1010400080912F050E94CD061092640510926305D1
:1010500010923405DF91CF911F910F91FF90EF9087
:10106000DF90CF9008959D9191938F5F75CF85EE1E
:10107000B0CF8091300590913105A0913205B091AB
:101080003305892B8A2B8B2B09F4A9CF0E94F205FB
:1010900000913005109131052091320530913305D2
:1010A0006C197D098E099F0906171707280739074C
:1010B00008F095CFC5CF88E08093770660E08CE696
:1010C00096E00C94740790E080E00895DC0180E0E5
:1010D000615090F09D919827E92FEF70F0E0ED546A
:1010E000FE4F2491E92FE295EF70F0E0ED53FE4FB3
:1010F000E491822F8E27ECCF0895DC012C9111967C
:10110000ED91FC91F8948181822B81839281322F21
:1011100030959323928387E090E00197F1F78181E6
:101120008323818383E290E00197F1F790817894A3
:10113000EFECF0E03197F1F7922381E009F480E0E1
:101140000895FC0190810180F281E02D292F2095E6
:1011500060FF14C0F8948281822382838181892B6D
:101160008183A3E2B0E01197F1F78281982B9283FB
:10117000789487ED90E00197F1F70895F8948281D3
:10118000822382838181892B8183AFEFB0E0119725
:10119000F1F78281982B928378948FE090E0EBCFE7
:1011A000DF92EF92FF920F931F93CF93DF93EC01A7
:1011B000D62EE42E08E010E0FF24F39461E08D2D9C
:1011C0008F2109F460E0CE010E94A108FF0C0150BC
:1011D0001109A1F7E11010C0F894E981FA81918119
:1011E0008881809589238183E981FA819281888130
:1011F0008095892382837894DF91CF911F910F91FD
:10120000FF90EF90DF900895FC0190810180F281C2
:10121000E02DF8948181292F209582238183789471
:101220003DE743E050E0315029F1DA011197F1F741
:1012300080818923C1F3F894828182238283818112
:10124000892B81837894ABE7B7E01197F1F7F89495
:10125000818182238183A3E1B1E01197F1F780813D
:10126000982381E009F080E07894E3E6F6E0319796
:10127000F1F7089580E00895CF92DF92EF92FF9208
:10128000CF93DF93EC0189859A850E94040940E0A1
:101290006CEC89859A850E94D008488164E4898530
:1012A0009A850E94D0088C818823E1F0EB818D81A2
:1012B0008823F9F0888181111CC00E944A066B01C5
:1012C0007C0189859A850E947D08813059F00E94B1
:1012D0004A066C197D098E099F096E3E7240810590
:1012E000910578F3DF91CF91FF90EF90DF90CF9051
:1012F0000895E9508EEE92E0E33038F4F0E0EE0F1E
:10130000FF1FE95EFE4F808191816C01990FEE080D
:10131000FF088981882321F060E08A810E94EA0425
:10132000C701B6010E94170689818823D9F261E0BE
:101330008A81DF91CF91FF90EF90DF90CF900C9456
:10134000EA042F923F924F925F926F927F928F9218
:101350009F92AF92BF92CF92DF92EF92FF920F9344
:101360001F93CF93DF93CDB7DEB72F970FB6F894C7
:10137000DEBF0FBECDBF9F878E870E944A066D835A
:101380007E838F839887EE85FF8582A193A1A4A198
:10139000B5A14D815E816F817885481B590B6A0B21
:1013A0007B0B86A597A5A0A9B1A9481759076A077D
:1013B0007B0708F426C1048CF58DE02D8081918196
:1013C000A281B38189839A83AB83BC83AE85BF85B9
:1013D0009096ED91FC9129813A814B815C816081ED
:1013E0007181828193810E94F02E4B015C01EE8518
:1013F000FF8522A533A544A555A569817A818B81F6
:101400009C810E94F02E6B017C01AE85BF855096B9
:101410002D913D914D915C915397C501B4010E946E
:10142000742DEE85FF8526A137A140A551A50E9408
:10143000F12E2B013C01AE85BF8596964D925D92B3
:101440006D927C929997DB96BC91B987B11118C0C7
:10145000EE85FF852485358546855785C701B6010C
:101460000E94742D9B01AC01C301B2010E94F02EB9
:10147000AE85BF8596966D937D938D939C9399973A
:10148000EE85FF8546A057A060A471A416A907A900
:1014900030AC21AC212F302F432D522DC301B2018E
:1014A0000E94053018160CF08FC0812F902FA32DAD
:1014B000B22DEE85FF8586A397A3A0A7B1A7F985D6
:1014C000FF2309F49AC0AE85BF851C962D913D91EE
:1014D0004D915C911F97C501B4010E94742D4B0181
:1014E0005C01EE85FF852489358946895789C701C6
:1014F000B6010E94742D9B01AC01AE85BF85969606
:101500006D917D918D919C9199970E94F02EA501EE
:1015100094010E94F12E6B017C019B01AC01612FB3
:10152000702F832D922D0E940E2D87FD14C0EE8505
:10153000FF8512A903A934A825A8212F302F432DF8
:10154000522DB601C7010E940E2D87FD04C01C2D2F
:101550000D2D3E2C2F2CAE85BF855E96ED91FC9116
:10156000812F902FA32DB22D80839183A283B383EB
:1015700089819A81AB81BC81EE85FF8582A793A783
:10158000A4A7B5A78D819E81AF81B88582A393A3BF
:10159000A4A3B5A381E02F960FB6F894DEBF0FBECB
:1015A000CDBFDF91CF911F910F91FF90EF90DF9012
:1015B000CF90BF90AF909F908F907F906F905F90F3
:1015C0004F903F902F900895AE85BF85D2968D9114
:1015D0009D910D90BC91A02D8A879B87AC87BD877C
:1015E0009C01AD01C301B2010E940E2D87FF67CFA0
:1015F0008A859B85AC85BD855CCF812C912C54015F
:1016000070CF80E0C8CF8F929F92AF92BF92CF925F
:10161000DF92EF92FF92CF93DF93EC01EE8DFF8D7F
:10162000C080D180E280F380CEA2DFA2E8A6F9A636
:10163000EC8DFD8D80819181A281B3818AA79BA7CA
:10164000ACA7BDA78EA89FA8A8ACB9ACA501940172
:10165000C701B6010E94053018162CF48EA29FA275
:10166000A8A6B9A60CC08AA89BA8ACA8BDA8A5012D
:101670009401C701B6010E940E2D87FDEFCFDF91C7
:10168000CF91FF90EF90DF90CF90BF90AF909F9061
:101690008F9008954F925F926F927F92AF92BF9218
:1016A000CF92DF92EF92FF920F931F93CF93DF932E
:1016B000CDB7DEB729970FB6F894DEBF0FBECDBF0A
:1016C0008A01AB01770F660B770B762F652F542FAE
:1016D0004427012E000C220B330B402B512B622B85
:1016E000732B092E000CAA0BBB0BDC019927882752
:1016F000842B952BA62BB72B6D01EE24FF24AC2C4D
:10170000092F182FF12CE12C88E0B82E80917A0651
:1017100090917B06E816F906C0F580918006412F6E
:10172000502F6A2D882371F08C9D90018D9D300D76
:101730001124632F809F90011124532F819FC0019A
:101740001124492FE09186068091810690918206AE
:1017500020918306E213C2C09701220F331F2E0D82
:101760003F1D820F931FE0918306E80FF92FF11DB3
:101770006083E0918406E80FF92FF11D50832091DA
:101780008506820F911DFC01408380918106909116
:101790008206892B09F47FC0409087065090880606
:1017A0006090890670908A060E94F205641575059E
:1017B0008605970550F40E94F205609387067093A2
:1017C00088068093890690938A060E94F2054090CD
:1017D0008706509088066090890670908A06641982
:1017E0007509860997096C32714081059105A0F24F
:1017F000F89480917C0690917D069A838983E0918C
:101800008106F0918206DF0111968081898790918F
:101810007806E0918B06F0918C0680918D069923D5
:1018200009F468C09081982B9887908180958923CE
:101830008F838F818C83BB8258856F8149853B81E3
:101840002C8189819A81508347FD252F3A952083E9
:10185000262F39F0441F00C000006083000000C044
:10186000F2CF38E04D9160830000019761F7F0936B
:101870008C06E0938B0649873B832C839A8389836C
:1018800078940E94F205609387067093880680938F
:10189000890690938A0665E070E080E090E00E94FF
:1018A00017062FEFE21AF20A88E0E816F10409F0B1
:1018B0002DCF29960FB6F894DEBF0FBECDBFDF91B6
:1018C000CF911F910F91FF90EF90DF90CF90BF903D
:1018D000AF907F906F905F904F9008959701220F87
:1018E000331F220F331F820F931FE80FF92FF11DB3
:1018F000108239CF9081982B988790818095892389
:101900008F838F818E83BD8258856F8149853D810C
:101910002E8189819A81508347FD252F00C000C008
:10192000208300C000C000C000C000C06083000071
:10193000262F3A9541F0441F000000C000C000C0AF
:1019400000C000C0E8CF38E04D9100C0608300C007
:10195000019709F7F0938C06E0938B0649873D8346
:101960002E838CCF1F93CF93DF93182FD92F70E046
:1019700060E08AE00E9495056AE070E080E090E017
:101980000E9417068091070190910801892B11F49C
:101990000E945B088CE390E090930801809307011C
:1019A00080918D05811105C081E080938D050E9495
:1019B0005405C0918E068FEF8C0F883060F5A12FF3
:1019C000BD2FA53BB10514F0A4EBB0E0B7FF02C0FA
:1019D000B0E0A0E028EE33E00E94233024EB30E0BA
:1019E00040E050E00E945E2E28513C4F4F4F5F4F29
:1019F00028503109A901440F452F441F550BD0E051
:101A0000FE01EE0FFF1FEC0FFD1FE856FA4F41835A
:101A1000220F2095228362E370E080E090E00E9434
:101A2000170670E060E08AE0DF91CF911F910C947F
:101A300095050F931F93CF938C01C62F0E947407B7
:101A40006C2F6460C8010E9474076C2F6B7FC80103
:101A50000E94740783EC90E00197F1F7CF911F91FA
:101A60000F9108950F931F93CF93DF938C01D62F7F
:101A7000C42F607F642B0E94190D80E1D89FB001B4
:101A800011246C2BC801DF91CF911F910F910C9401
:101A9000190DCF93DF93CDB7DEB728970FB6F89423
:101AA000DEBF0FBECDBF98E0EFE0F1E0DE011196A2
:101AB00001900D929A95E1F790917406961708F4AB
:101AC0006FEF262F30E0220F331F41E050E04C0F24
:101AD0005D1F240F351FF9016081680F606840E0C9
:101AE0008CE696E028960FB6F894DEBF0FBECDBF09
:101AF000DF91CF910C94320D40E061E08CE696E0EE
:101B00000E94320D8BE39FE10197F1F7089541E0C8
:101B10000E94320D81E090E008952F923F924F9203
:101B20005F926F927F928F929F92AF92BF92CF926D
:101B3000DF92EF92FF920F931F93CF93DF93CDB776
:101B4000DEB761970FB6F894DEBF0FBECDBF8C0134
:101B5000A62EDC011996ED91FC911386158614864C
:101B600012861186108617821682158214821382BD
:101B7000B12C99249394F801E184F284D7011D9645
:101B80008C91882309F1F70113861586148660E08D
:101B900070E08EEF92EC61960FB6F894DEBF0FBE48
:101BA000CDBFDF91CF911F910F91FF90EF90DF900C
:101BB000CF90BF90AF909F908F907F906F905F90ED
:101BC0004F903F902F900895C7010E940409811102
:101BD0000AC0D7011B961C921B971D961C921D973D
:101BE0001C961C92D4CF40E060EFC7010E94D00841
:101BF000CC24C394712C612CDD24D394C7010E94A2
:101C00007D08882EC7010E947D08B1E08B122BC091
:101C1000813009F04AC0E0E4ED1508F0B4CFD701F7
:101C20001B966C921B97611002C01D969C92F70147
:101C30008381882309F4A7CF33966E014AE0C40E4E
:101C4000D11C5BE0E50EF11CD601360181918D932C
:101C5000EE16FF06D9F7AB1409F43EC0B394AB14EB
:101C600008F089CF94CFE72DF0E0881214C0D70197
:101C70001B968C911B97D816B0F4AE0FBF1F13960E
:101C80008C918C2191F4812CB8E0BD1518F0D7010E
:101C90001C96DC926D2CEE0DFF1D83819C2D909582
:101CA000892383830AC08D11EECFF701E70DF11D63
:101CB00083818C29838388248394682DC7010E94A3
:101CC000A108D394CC0C19F47394CC24C394B7E03A
:101CD000B71508F093CF9FCF67E0C6010E94660852
:101CE00099898913BBCFD80119968D919C910E9437
:101CF0000409882309F44BCFD8011996ED90FC9084
:101D000040E065E5C7010E94D0085601B8E0AB0E7F
:101D1000B11CF60161916F0140E0C7010E94D0083B
:101D2000CA14DB04B1F740E06EEBD80119968D912F
:101D30009C910E94D008FE0131967F016F011F0126
:101D4000D80119968D909C90F8E0AF2EB12C512CB3
:101D500044244394C4010E947D0881115428440CFA
:101D6000B1E0AB1AB108B1F7F60151926F016E16EE
:101D70007F0631F7D80119968D919C910E94040934
:101D8000813009F004CFF70181917F01811104C0F6
:101D9000EC15FD05C1F7FBCE68E0C1010E946608A5
:101DA00099858913F4CE6A8170E0762F6627770FC4
:101DB000770F770F2981F8E02F9F90011124262BB0
:101DC000372B8A858031E1F468856623C9F070E09D
:101DD0008F81AB01481B5109CA019695982F88271E
:101DE000979587950E940F30CB018097B90153E0FA
:101DF000660F771F5A95E1F760789C01260F371F11
:101E0000213854EE35070CF4C2CEB901330F880BDC
:101E1000990B0E94152D20E030E040E05CE30E9429
:101E2000742DB9CECF93DF93EC018881998100970F
:101E300011F00E94E030198218821D821C821B82E0
:101E40001A82DF91CF910895FC01808191810097E2
:101E500011F00C94E0300895FB0101900020E9F7A7
:101E60003197AF01461B570BDC01ED91FC910280CD
:101E7000F381E02D09948F929F92AF92BF92EF92DF
:101E8000FF920F931F93CF93DF93CDB7DEB7A19748
:101E90000FB6F894DEBF0FBECDBF7C01FA01CB01B7
:101EA00019A2223008F42AE08E010F5D1F4F822E06
:101EB000912CB12CA12CBF01A50194010E94BF2E31
:101EC000F901CA016A300CF5605DD8016E938D018D
:101ED000232B242B252B79F790E080E0109721F01D
:101EE000BD01C7010E942C0FA1960FB6F894DEBF6A
:101EF0000FBECDBFDF91CF911F910F91FF90EF905B
:101F0000BF90AF909F908F900895695CDECFCF9285
:101F1000DF92EF92FF920F931F93CF93DF9377FFA0
:101F20001DC06A017B01EC016DE20E9469038C0116
:101F300044275527BA014C195D096E097F092AE02B
:101F4000CE010E943B0F800F911FDF91CF911F9117
:101F50000F91FF90EF90DF90CF9008952AE0DF91EE
:101F6000CF911F910F91FF90EF90DF90CF900C9445
:101F70003B0FCF93DF93BC0184EB95E00E942C0FC5
:101F8000EC016DE471E084EB95E00E942C0F8C0F66
:101F90009D1FDF91CF910895209194053091950573
:101FA0002F5F3F4F309395052093940540915D0638
:101FB00050915E064115510519F04217530734F44C
:101FC00080E591E00E94B90F80E008959C012E5FAA
:101FD0003F4F213032401CF082E791E0F3CF0E9466
:101FE000592E81E00895CF93DF930E945D04EC01A8
:101FF0006DE471E084EB95E00E942C0F8C0F9D1F27
:10200000DF91CF910895CF93DF93FC0144815581F7
:102010006081718184EB95E00E947003EC016DE4B6
:1020200071E084EB95E00E942C0F8C0F9D1FDF91D7
:10203000CF9108952F923F924F925F926F927F922D
:102040008F929F92AF92BF92CF92DF92EF92FF92C8
:102050001F93CF93DF93EC016A017B01722EAB01DA
:102060009601CB01B6010E940A306CE971E0811142
:1020700026C046015701E894B7F82FEF3FEF4FE72E
:102080005FE7C501B4010E940A3081110CC02FEF37
:102090003FEF4FE75FE7C501B4010E940E2D60EAF4
:1020A00071E0181664F02FEF3FEF4FE75FE4C701D0
:1020B000B6010E9405301816B4F464EA71E0CE014E
:1020C000DF91CF911F91FF90EF90DF90CF90BF9065
:1020D000AF909F908F907F906F905F904F903F90C8
:1020E0002F900C942C0F2FEF3FEF4FE75FECC701C1
:1020F000B6010E940E2D87FDE0CF20E030E0A9015F
:10210000C701B6010E940E2D312C212C87FF09C07A
:102110006DE2CE010E9469031C01F7FAF094F7F812
:10212000F09410E060E070E080E09FE3711641F011
:1021300020E030E040E251E40E945D2F1F5FF6CFC7
:10214000A70196010E94F12E2B013C010E94D62F7F
:102150004B015C012AE0BC01A401CE010E943B0FAF
:102160007C01E20CF31C1123C1F1C501B4010E94F2
:10217000132D9B01AC01C301B2010E94F02E4B0153
:102180005C016EE2CE010E946903E80EF91E115057
:1021900020F120E030E040E251E4C501B4010E94AA
:1021A000742D2B013C010E94D62F4B01B12CA12C88
:1021B0002AE0B501A401CE010E943B0FE80EF91EF2
:1021C000C501B4010E94132D9B01AC01C301B201F2
:1021D0000E94F02E4B015C01DACFC701DF91CF9155
:1021E0001F91FF90EF90DF90CF90BF90AF909F90A6
:1021F0008F907F906F905F904F903F902F900895B9
:10220000CF93DF93AB01BC0122E084EB95E00E9409
:102210001A10EC016DE471E084EB95E00E942C0F44
:102220008C0F9D1FDF91CF9108950C942C0F87E1A7
:1022300091E190938F0580938E050E945B080E9428
:102240007C0D60E080E00E94490D68EA71E08CE658
:1022500096E00E94151161E080E00E94490D67EB55
:1022600071E08CE696E00C9415110E947C0D60E004
:1022700080E00E94490D67EC71E08CE696E00C94DA
:10228000151186E090E090938F0580938E050E9453
:102290007C0D60E080E00E94490D66ED71E08CE607
:1022A00096E00E94151160E084E00E94490D409183
:1022B000030150E070E060E02AE08CE696E00E94C6
:1022C0003B0F61E08AE00E94490D6AED71E08CE607
:1022D00096E00E94151161E080E00E94490D61EED8
:1022E00071E08CE696E00C941511CF93DF93EC012E
:1022F0008AE090E090938F0580938E0580E090E0D7
:10230000A8E4B2E48093D9069093DA06A093DB06A2
:10231000B093DC0681E0809304010E947C0D60E0B4
:1023200080E00E94490D68EE71E08CE696E00E9424
:10233000151161E080E00E94490D67EF71E0209780
:1023400049F064E072E0C130D10521F0229741F4F8
:1023500067EC71E08CE696E0DF91CF910C9415115B
:10236000DF91CF9108958EE090E090938F05809358
:102370008E050E947C0D60E080E00E94490D62E1C4
:1023800072E08CE696E00E94151180916F0560E086
:10239000811113C08CE00E94490D6FE172E08CE660
:1023A00096E00E94151161E080E00E94490D66E20E
:1023B00072E08CE696E00C9415118CE00E94490DB9
:1023C00062E272E0ECCF85E090E090938F0580931D
:1023D0008E050E947C0D60E080E00E94490D66E35E
:1023E00072E08CE696E00E94151161E080E00E94A8
:1023F000490D66E272E08CE696E00C9415118BE0D4
:1024000090E090938F0580938E050E947C0D60E094
:1024100080E00E94490D80918005813081F464E460
:1024200072E08CE696E00E94151161E080E00E9467
:10243000490D64E572E08CE696E00E9415118091EA
:102440008005823091F564E472E08CE696E00E94AB
:10245000151161E080E00E94490D64E672E08CE6AF
:1024600096E00E94151184E690E00E94B20C68ECA0
:1024700070E080E090E00E94170690E080E00E940B
:10248000B20C68EC70E080E090E00E94170684E6F1
:1024900090E00E94B20C68EC70E080E090E00E9456
:1024A000170690E080E00E94B20C80918005833096
:1024B00081F463E772E08CE696E00E94151161E01A
:1024C00080E00E94490D64E572E08CE696E00C9491
:1024D00015110895CF92DF92EF92FF92CF9381E092
:1024E00080936E0580916705813011F41092670525
:1024F00082E090E090938F0580938E050E947C0D82
:1025000060E080E00E94490DC0902907D0902A0722
:10251000E0902B07F0902C0720E030E0A901C701E4
:10252000B6010E94053020E030E040E05FE387FD27
:102530006EC0C701B6010E94F12E0E94CF2FAB01E1
:10254000BC018CE696E00E94870F60E082E00E946A
:10255000490D6DE772E08CE696E00E94151160E08F
:1025600083E00E94490D409121075091220760911C
:1025700023077091240722E08CE696E00E941A104F
:1025800060E085E00E94490D6FE772E08CE696E01E
:102590000E941511C091790560E08CE0C93008F007
:1025A0008BE00E94490D4C2F50E070E060E02AE083
:1025B0008CE696E00E943B0F60E08DE00E94490DA2
:1025C00068ED71E08CE696E00E941511809173052C
:1025D00060E08A3008F18EE00E94490D4091730559
:1025E00050E070E060E02AE08CE696E00E943B0F4D
:1025F00061E080E00E94490D68E872E08CE696E0B8
:10260000CF91FF90EF90DF90CF900C941511C70100
:10261000B6010E94F02E91CF8EE00E94490D66E82F
:1026200072E08CE696E00E94151160E08FE0D4CF56
:10263000CF93DF93EC0187E090E090938F05809338
:102640008E050E947C0D60E080E00E94490D68E9E3
:1026500072E08CE696E00E94151161E080E00E9435
:10266000490D209709F040C067EA72E08CE696E0D9
:102670000E94151180916705811133C080916F050B
:10268000813061F488EA91E00E94F30F64EF71E019
:1026900080E090E00E94170610926F0561EB72E0F7
:1026A00084EB95E00E9415114091030150E070E029
:1026B00060E02AE084EB95E00E943B0F6DE471E05E
:1026C00084EB95E00E942C0F60ED77E080E090E0D5
:1026D0000E9417068DE991E00E94F30F81E080933C
:1026E0006705DF91CF91089565EB72E0C130D105A8
:1026F00049F060EC72E0C230D10521F06CEC72E080
:10270000239779F78CE696E0DF91CF910C94151121
:10271000FC0180819181009711F00C942A2960E0DE
:1027200070E0CB010895FC0124813581232B39F41D
:1027300021E0FB018081882349F020E007C08081EF
:1027400091810E942F3221E0892BB9F7822F0895C1
:102750000F931F93CF93DF938C01EB01FC018081DA
:1027600091810097E1F06881798161157105A9F087
:10277000428153812C813D814217530770F00E94A2
:1027800038328C819D81F801958384831D821C825F
:10279000DF91CF911F910F9108950E94E0308881C1
:1027A0009981F801918380838A819B8193838283BD
:1027B0008C819D8195838483198218821B821A8261
:1027C000E5CF0F931F93CF93DF93EC01888199811D
:1027D000009759F02A813B812617370730F081E0B6
:1027E000DF91CF911F910F9108958B016F5F7F4F04
:1027F0000E946931009759F0998388831B830A836B
:102800002C813D81232B59F7FC011082E8CF80E019
:10281000E7CFEF92FF920F931F93CF93DF93611552
:10282000710541F480E0DF91CF911F910F91FF90EE
:10283000EF90089541155105B1F07B01EC010C8139
:102840001D81040F151FB8010E94E113882351F365
:10285000288139818C819D81B701820F931F0E944D
:1028600038321D830C8381E0DECFCF93DF93EC0100
:10287000FB0101900020E9F73197AF01461B570B90
:102880000E940914811103C0CE010E94120FCE01D3
:10289000DF91CF910895EF92FF920F931F93CF9303
:1028A000DF93EC017B018A01BA010E94E1138111DF
:1028B0000BC0CE010E94120FCE01DF91CF911F916C
:1028C0000F91FF90EF9008951D830C83B7018881CD
:1028D00099810E943832F0CFEF92FF920F931F93AD
:1028E000CF93DF93CDB7DEB7A1970FB6F894DEBFD5
:1028F0000FBECDBF7C01CB01BA01F701118210825E
:1029000013821282158214828E010F5F1F4F22E004
:1029100044E00E9408290097C9F0FC0101900020C2
:10292000E9F73197AF01481B590BBC01C7010E9461
:102930004B14A1960FB6F894DEBF0FBECDBFDF914A
:10294000CF911F910F91FF90EF900895C7010E94C2
:10295000120FEFCFCF93DF93EC01FB0186179707A0
:1029600049F0608171816115710541F044815581A3
:102970000E944B14CE01DF91CF9108950E94120F57
:10298000F9CFFC0111821082138212821582148207
:102990000C94AA14FC0111821082138212821582F7
:1029A0001482FB0101900020E9F73197AF01461B2B
:1029B000570B0C944B14AF92BF92CF92DF92EF92D1
:1029C000FF920F931F93CF93DF937C016B015A010A
:1029D00089012417350720F48B2D5901042F182F56
:1029E0006FE471E0C7010E94CA14D6011496CD911C
:1029F000DC91AC16BD0620F50C171D0708F4E801A4
:102A0000D601ED91FC911197EC0FFD1F1081108202
:102A10006D917C916A0D7B1D61157105E9F0FB01DB
:102A200001900020E9F73197AF01461B570BC70112
:102A30000E944B14F60180819181C80FD91F188321
:102A4000C701DF91CF911F910F91FF90EF90DF9021
:102A5000CF90BF90AF900895C7010E94120FEACFA8
:102A60008F929F92AF92BF92CF92DF92EF92FF929E
:102A70000F931F93CF93DF93EC017A01DB01149640
:102A8000CD90DC908601015011092FEF3FEF50E00F
:102A900040E090E080E0F0E0E0E0081719071CF16A
:102AA000EE16FF061CF1DC0111965D018C159D05EB
:102AB00060F4DB018D909C908114910431F0D4017D
:102AC000A80FB91FAC91AC3219F00817190749F4D7
:102AD0003196A9014F5F5F4F95010817190709F05B
:102AE0009C01C501DACFEE16FF068CF4CE010E94E0
:102AF000DB14CE01DF91CF911F910F91FF90EF90EA
:102B0000DF90CF90BF90AF909F908F9008956FE42B
:102B100071E0CE010E94CA14ECCFCF93DF93EC0199
:102B2000FB01248135810E94DB14CE01DF91CF911E
:102B3000089585ED8093BC0080913005909131051A
:102B4000A0913205B09133050796A11DB11D23E078
:102B5000B695A795979587952A95D1F72091BC00B2
:102B600024FD03C010922E05089540913005509128
:102B700031056091320570913305452B462B472B6B
:102B800069F30097A105B10541F025E32A95F1F716
:102B900000000197A109B109E1CF80912F050C94A4
:102BA000CD061F920F920FB60F9211242F933F93D1
:102BB0004F935F936F937F938F939F93AF93BF9345
:102BC000EF93FF9384EB95E00E94EE03FF91EF916A
:102BD000BF91AF919F918F917F916F915F914F9135
:102BE0003F912F910F900FBE0F901F9018951F923D
:102BF0000F920FB60F9211242F938F939F93EF9301
:102C0000FF93E091C405F091C5058081E091CA056C
:102C1000F091CB0582FD1BC090818091CD058F5F27
:102C20008F732091CE05821741F0E091CD05F0E041
:102C3000EC54FA4F958F8093CD05FF91EF919F91C2
:102C40008F912F910F900FBE0F901F90189580813C
:102C5000F4CF1F920F920FB60F9211242F933F9330
:102C60008F939F93AF93BF93809157059091580591
:102C7000A0915905B0915A053091560523E0230FD4
:102C80002D3758F50196A11DB11D2093560580934F
:102C9000570590935805A0935905B0935A05809114
:102CA0005B0590915C05A0915D05B0915E05019674
:102CB000A11DB11D80935B0590935C05A0935D05FC
:102CC000B0935E05BF91AF919F918F913F912F91EE
:102CD0000F900FBE0F901F90189526E8230F0296B5
:102CE000A11DB11DD2CF1F920F920FB60F921124CA
:102CF0002F933F934F935F936F937F938F939F9304
:102D0000AF93BF93EF93FF938091B900887F803694
:102D100009F44AC0F0F5883209F4A7C018F58031EB
:102D200009F49BC0B8F4882309F4F9C0883009F489
:102D300094C0FF91EF91BF91AF919F918F917F913F
:102D40006F915F914F913F912F910F900FBE0F9018
:102D50001F901895883109F488C0803251F780930C
:102D60002C0514C0803409F49DC040F48033B9F3BD
:102D70008833F9F680932C0585ECB0C0803509F4D2
:102D800085C0883509F496C0883499F60E94991553
:102D9000D0CF883909F48CC038F5883729F050F441
:102DA000883611F0803729F683E080932E05109243
:102DB000070557C0883809F47BC0803919F080387E
:102DC00009F0B7CF80910705803208F071C0E0911B
:102DD000070581E08E0F809307058091BB00F0E02E
:102DE000E951FB4F80833DC0803B39F0E0F4803AED
:102DF00009F479C0883A09F09CCF84E080932E05CD
:102E00001092E6041092E504E0915F05F0916005F0
:102E100009958091E50481110FC081E08093E5045C
:102E20001092C50409C0803C09F4A6CF883C09F47F
:102E3000A3CF883B09F07DCFE091E60481E08E0FBF
:102E40008093E604F0E0EB53FB4F80818093BB005E
:102E50009091E6048091E50429C080910905809352
:102E6000BB0085EC8093BC0064CF90912B058091D2
:102E70002A05981758F5E0912B0581E08E0F809375
:102E80002B05F0E0E65FFA4F8081E9CFE0912B055A
:102E900081E08E0F80932B058091BB00F0E0E65F10
:102EA000FA4F808390912B0580912A059817C8F2DC
:102EB00085E8D8CFE0912B0581E08E0F80932B051C
:102EC0008091BB00F0E0E65FFA4F808380912D0592
:102ED00081115CCF81E08093080584EA8093BC0077
:102EE00010922E0526CF85EC8093BC0010922E0503
:102EF00080910705803230F4E0910705F0E0E95158
:102F0000FB4F10826091070570E0E0916105F09140
:102F1000620587EE94E00995109207050ACF10929A
:102F20002C0534CF1F920F920FB60F9211242F93BE
:102F30003F934F935F936F937F938F939F93AF9341
:102F4000BF93EF93FF93809196058F5F80939605D3
:102F5000E0919705209196058E2F90E0FC01EE0FF1
:102F6000FF1FE80FF91FE856FA4F8181E09197059E
:102F700082131DC08E2F90E0FC01EE0FFF1FE80FA3
:102F8000F91FE856FA4F82818093B200FF91EF91CA
:102F9000BF91AF919F918F917F916F915F914F9171
:102FA0003F912F910F900FBE0F901F901895209179
:102FB00096058E2F90E0FC01EE0FFF1FE80FF91F22
:102FC000E856FA4F8181821708F7E09197058E2F16
:102FD00090E0FC01EE0FFF1FE80FF91FE856FA4FD3
:102FE000808185FF10C0E09197058E2F90E0FC0155
:102FF000EE0FFF1FE80FF91FE856FA4F808160E0DF
:103000008F710E94EA04809197058F5F80939705E6
:10301000109296051092B20080919705882319F1BD
:10302000809197058930F8F4E09197058E2F90E014
:10303000FC01EE0FFF1FE80FF91FE856FA4F8081E1
:1030400085FFA4CFE09197058E2F90E0FC01EE0F55
:10305000FF1FE80FF91FE856FA4F808161E08F717A
:103060000E94EA0493CF80919705893008F48ECFAF
:10307000109297058BCF1F93CF93DF93EC01162F00
:1030800060E0812F0E941805612F70E0FB01EA507B
:10309000FB4FE491E883FB01EC5EFA4FE491F0E032
:1030A000EE0FFF1FE352FE4F859194919A8389831F
:1030B0001B861D861C861A86198618861F821E820C
:1030C0001D821C821B82DF91CF911F9108954F9228
:1030D0005F926F927F928F929F92AF92BF92CF92A8
:1030E000DF92EF92FF920F931F93CF93DF9300D065
:1030F00000D000D0CDB7DEB79E838D832701380185
:10310000FC01578F468F758F648F31A320A312AEB9
:1031100012AA13AA14AA15AA80E090E0AFE7B3E4BC
:1031200086AB97ABA0AFB1AF84E690E0A0E0B0E093
:1031300086A797A7A0ABB1ABCF010E94C00220E049
:1031400030E0A901C801B7010E940E2D87FD7CC0A7
:1031500020E030E0A901C601B5010E940E2D87FDD7
:1031600073C081E090E0ED81FE81938F828F83AF09
:103170004082518262827382A482B582C682D782E3
:10318000108611861286138666A577A580A991A957
:103190000E94132D20E030E04AE754E40E945D2FA6
:1031A00069837A838B839C83ED81FE814486558677
:1031B000668677869B01AC01C601B5010E94742D1D
:1031C0006B017C01ED81FE81C08AD18AE28AF38A9B
:1031D00029813A814B815C8160E070E0CB010E94E3
:1031E0005D2F4B015C01ED81FE81848A958AA68A60
:1031F000B78A808D918D019739F5A801920160E021
:1032000070E0CB010E94F02EED81FE81648775870E
:1032100086879787A701960160E070E0CB010E9446
:10322000F02EED81FE81608B718B828B938BA501DB
:10323000940160E070E0CB010E94F02EED81FE81F0
:10324000648B758B868B978B0E944A06ED81FE817D
:10325000C6A4D7A4E0A8F1A86C197D098E099F091E
:1032600062A373A384A395A326960FB6F894DEBF3A
:103270000FBECDBFDF91CF911F910F91FF90EF90C7
:10328000DF90CF90BF90AF909F908F907F906F9086
:103290005F904F900895AF92BF92CF92DF92EF92DE
:1032A000FF920F931F931092B7051092B60588EE08
:1032B00093E0A0E0B0E08093B8059093B905A093A7
:1032C000BA05B093BB0521E231E03093B5052093F8
:1032D000B40525EC30E03093C1052093C00524EC03
:1032E00030E03093C3052093C20520EC30E03093EA
:1032F000C5052093C40521EC30E03093C705209329
:10330000C60522EC30E03093C9052093C80526ECB1
:1033100030E03093CB052093CA051092CD05109272
:10332000CE051092CF051092D0051092540610923F
:1033300053068093550690935606A0935706B09374
:10334000580683E391E0909352068093510684E6F9
:1033500090E090935E0680935D06A12CB12C90E8DE
:10336000C92E90E4D92EE12CF12C08EC11E421E2D5
:1033700037E045E257E069E277E08DE297E00E94AE
:103380006718A12CB12C30E7C32E31E4D32EE12CE9
:10339000F12C00EF11E429ED36E04DED56E061EE41
:1033A00076E085EE96E00E94671862E08BEC96E08E
:1033B0000E943B1865E08DEB96E00E943B1810924E
:1033C000BC061092BB061092A7068BEC96E0909379
:1033D000B0068093AF061092AD061092AE06109222
:1033E000A60699E09093A90681E08093AA068093AF
:1033F000AB068093AC061092A5061092A40610921C
:1034000090062DEB36E030939906209398061092A3
:1034100096061092970610928F06909392068093CC
:103420009306809394068093950680915F0688307A
:1034300008F085C08F5F80935F0680938E061092A0
:1034400079061092800610928706109288061092D4
:10345000890610928A0681E080938606809383060F
:103460001092840692E0909385068093780688E116
:1034700090E090937D0680937C060E944430909368
:10348000820680938106009709F45CC028E1FC0164
:1034900011922A95E9F788E090E090937B0680935B
:1034A0007A0684E090E090937F0680937E06809178
:1034B0007906882341F061E084E00E94180560E00D
:1034C00084E00E94EA04E8E1F5E0E491F0E0EE0F28
:1034D000FF1FE65FFA4F8591949190938C0680933D
:1034E0008B06EAEFF4E0E491E0938D0610926F060C
:1034F00010926E0685E491E090936D0680936C06C1
:1035000087E28093700680E18093750682E0809365
:1035100076061092770669ED72E086E696E00E94E4
:10352000CA1469ED72E080E696E01F910F91FF905A
:10353000EF90DF90CF90BF90AF900C94CA14109290
:103540008E067DCF10927D0610927C0610927B062F
:1035500010927A06A6CFCF93DF93CDB7DEB76C97E4
:103560000FB6F894DEBF0FBECDBF789484B58260ED
:1035700084BD84B5816084BD85B5826085BD85B517
:10358000816085BD80916E00816080936E00109295
:103590008100809181008260809381008091810010
:1035A00081608093810080918000816080938000A1
:1035B0008091B10084608093B1008091B0008160FF
:1035C0008093B00080917A00846080937A0080912B
:1035D0007A00826080937A0080917A008160809383
:1035E0007A0080917A00806880937A001092C100FE
:1035F000E091C405F091C50582E08083E091C005AB
:10360000F091C1051082E091C205F091C3058FECE5
:1036100080831092CC05E091C805F091C90586E041
:103620008083E091C605F091C70580818061808329
:10363000E091C605F091C705808188608083E091A4
:10364000C605F091C705808180688083E091C6053A
:10365000F091C70580818F7D808382E390E0A0E0B8
:10366000B0E08093B8059093B905A093BA05B093E4
:10367000BB0562E370E080E090E00E9417060E94C4
:10368000540581E080938D0590E080E00E94B20CAB
:1036900068EC70E080E090E00E9417068CE390E018
:1036A0000E94B20C6CEB72E080E090E00E94170682
:1036B00090E080E00E94B20C64EF71E080E090E066
:1036C0000E94170662E08EE00E94180562E08FE01B
:1036D0000E94180562E080E10E94180562E081E125
:1036E0000E941805E0918E068E2F90E0FC01EE0FEF
:1036F000FF1FE80FF91FE856FA4F80818F7D808306
:1037000010928D0580917E0690917F0697FD08C0EE
:1037100061E00E94180560E080917E060E94EA0444
:1037200011E01093790650E040E070E060E090E036
:1037300080E00E944A0B68EC70E080E090E00E941C
:1037400017064AE050E06AE070E08AE090E00E94EC
:103750004A0B64EF71E080E090E00E94170650E0B1
:1037600040E070E060E090E080E00E944A0B109240
:1037700066051092650510926405109263050E941B
:10378000AF0686E693E09093600580935F0587E639
:1037900093E090936205809361051093780561E052
:1037A0008AE00E94180561E083E00E94180570E03D
:1037B00060E08AE00E94950561E088E00E941805BB
:1037C00060E088E00E94EA0464EF71E080E090E04D
:1037D0000E94170661E088E00E94EA0461E087E049
:1037E0000E9418058091040160E0813009F061E0D9
:1037F00087E00E94EA0480E090E0A5E1B2E48093D3
:10380000210790932207A0932307B0932407809168
:103810006707811104C08DE297E00E94030B81E0ED
:10382000809367078DE297E00E94F6028DE297E0B1
:103830000E94C0021092D9061092DA061092DB069E
:103840001092DC0680911F07811104C085EE96E07E
:103850000E94030B81E080931F0785EE96E00E9493
:10386000F60285EE96E00E94C00286E192E00E9498
:10387000F30F8BEF91E00E945D046AE979E989E535
:1038800090E40E9400110E944A060E94132D60934A
:10389000740570937505809376059093770562E3C0
:1038A00070E080E090E00E9417061092660510928A
:1038B000650510926405109263050E94AF0686E6C6
:1038C00093E09093600580935F0587E693E0909383
:1038D00062058093610510927106809176068230B0
:1038E00018F098E0909371068093740662E370E09C
:1038F00080E090E00E941706609177068CE696E0E3
:103900000E94740768EE73E080E090E00E94170662
:1039100060E38CE696E00E94190D0BE416E4C80102
:103920000197F1F760E38CE696E00E94190DC8015B
:103930000197F1F760E38CE696E00E94190D83E5AC
:1039400092E00197F1F760E28CE696E00E94190D93
:1039500060917106606240E08CE696E00E94320D54
:1039600084E08093720640E06CE08CE696E00E9472
:10397000320D0E947C0D82E08093730640E066E089
:103980008CE696E00E94320D40E062E08CE696E024
:103990000E94320D8BE39FE10197F1F70E947C0DAD
:1039A0000E945B080E946A1262E370E080E090E08F
:1039B0000E9417060E945B080E946A1280E094E051
:1039C00090935E0680935D0690E080E00E94452E15
:1039D0008093030182E090E090937B0580937A05C9
:1039E00062E070E00E94CC0FB8E52B2EB2E03B2ED7
:1039F0006FE471E0CE0143960E94CA1484EB95E017
:103A00000E94CE03892B09F4BBC16FE471E0CE01A3
:103A100001960E94CA140E94560697FD0FC08A3074
:103A2000910561F08F83188641E050E0BE01695F27
:103A30007F4FCE0101960E940914EDCFBE016F5F4A
:103A40007F4FCE0143960E94A813CE0101960E949B
:103A5000240FBE016D5E7F4FCE010D960E94C114F2
:103A6000CD84DE84C114D10439F009891A89760124
:103A70000115110509F0C2C06AEE72E0CE010D9683
:103A80000E949313811108C060EF72E0CE010D9681
:103A90000E949313882341F060E088E00E94EA04CA
:103AA00080E194E00E94F30F66EF72E0CE010D9684
:103AB0000E949313811108C06DEF72E0CE010D9644
:103AC0000E949313882341F061E088E00E94EA0499
:103AD00089E094E00E94F30F64E073E0CE010D965C
:103AE0000E949313811108C06AE073E0CE010D9625
:103AF0000E949313882379F060E087E00E94EA0433
:103B000081E080930401309206012092050183E058
:103B100094E00E94F30F60E173E0CE010D960E94E5
:103B20009313811108C067E173E0CE010D960E94E6
:103B30009313882351F061E087E00E94EA04109219
:103B400004018CEF93E00E94F30F6EE173E0CE016D
:103B50000D960E949313882369F00E945B0881E010
:103B600080938C052CE330E030930801209307010B
:103B70000E946A1266E273E0CE010D960E949313D2
:103B8000882309F478C08AEE93E00E94F30F10E0D6
:103B900000E080917A0590917B050817190708F0DD
:103BA0006AC0A801012E000C660B770B84EB95E030
:103BB0000E94870F6EE273E084EB95E00E9415117E
:103BC000780132E0E30EF11C41E0E41642E0F40635
:103BD0000CF04AC0C8010E94452EAC0170E060E0C4
:103BE0002AE084EB95E00E943B0F6DE471E084EBEA
:103BF00095E00E942C0F8701CCCF750157012FEF64
:103C0000A21AB20AD7018C91082E000C990B0E94BF
:103C1000ED2C892B91F7015011090C0D1D1DF80198
:103C20008081082E000C990B0E94ED2C892B31F01D
:103C30000E151F0518F001501109F1CF0F5F1F4F2E
:103C4000A8014E195F095A8B498BCE14DF0420F46A
:103C5000B701C6010E942632ED85FE8589899A89C1
:103C6000E80FF91F108208CF82E791E00E94B90F98
:103C700090E080E0B2CF60E373E0CE010D960E9449
:103C80009313882389F084ED93E00E94F30F02E000
:103C900010E070E060E0C8010E94CC0F0E5F1F4F83
:103CA0000E3F51E01507A9F76AE373E0CE010D96C8
:103CB0000E949313811134C061E473E0CE010D962C
:103CC0000E94931381112CC068E473E0CE010D961D
:103CD0000E949313811191C160E573E0CE010D96AE
:103CE0000E949313811189C168E573E0CE010D969E
:103CF0000E94931381118CC164E673E0CE010D968E
:103D00000E949313882309F492C11092D90610924D
:103D1000DA061092DB061092DC0686EA93E00DC00C
:103D20004091020150E06091010170E0809100013A
:103D300090E00E944A0B8AEC93E00E94F30F63ED3F
:103D400073E0CE010D960E949313882309F481C27B
:103D5000E0918E068E2F90E0FC01EE0FFF1FE80F22
:103D6000F91FE856FA4F80818F7D808310928D0570
:103D7000CE010D960E94240F30920601209205017B
:103D8000CE0143960E94240F8EE00E94C1048C0154
:103D90008FE00E94C104880F991F080F191F80E14E
:103DA0000E94C104880F991F880F991F080F191FBF
:103DB00081E10E94C104AC0163E0440F551F6A9584
:103DC000E1F7400F511F50937205409371054F303A
:103DD000510591F1052E000C660B770B84EB95E0F5
:103DE0000E94870F6DE471E084EB95E00E942C0F38
:103DF00080917105909172059C01215031092E30FE
:103E0000310508F067C52091070130910801232B87
:103E100009F060C50E945B08ECE3F0E0F093080154
:103E2000E0930701109272051092710564EF71E042
:103E300080E090E00E94170669E170E080E090E089
:103E40000E9417060E944A06009190051091910564
:103E50002091920530919305601B710B820B930B9F
:103E6000693873418105910510F40C949027809175
:103E70008E0590918F05029711F40E946A12EDB79A
:103E8000FEB7FC8FEB8F809178052DB73EB744E0ED
:103E9000849F2019310911240FB6F8943EBF0FBE3C
:103EA0002DBF8DB79EB701969A8F898F8FE896E0C8
:103EB0000E943C090E944A060E94132D209174051D
:103EC0003091750540917605509177050E94F02E4E
:103ED00020E030E04AE754E40E945D2F6B017C0152
:103EE00020E030E0A90160912107709122078091C4
:103EF0002307909124070E9405301816E4F50E94CC
:103F00004A0628EE33E040E050E00E94BF2E49010F
:103F10005A01CA01B9012CE330E040E050E00E94B0
:103F2000BF2EA5019401261B370B480B590BCA0164
:103F3000B9012CE330E040E050E00E94BF2E49017F
:103F40005A01CA01B9012CE330E040E050E00E9480
:103F5000BF2E60937305A5019401261B370B480BF8
:103F6000590BCA01B9012CE330E040E050E00E9457
:103F7000BF2E20937905B701A601CE0107960E94B6
:103F80006C14BE01695F7F4FCE0101960E94C1147F
:103F90006BE774E0CE0101960E9435140E94031075
:103FA000CE0101960E94240FCE0107960E94240F95
:103FB000898C9A8C740110E000E0412C512C320164
:103FC0006091780570E0061717070CF03BC6602F6C
:103FD0008FE896E00E948D0D9B01AC01D7012D93D7
:103FE0003D934D935D937D01C301B2010E94F12E7B
:103FF0002B013C010F5F1F4FE3CF50E040E070E02A
:1040000060E090E080E00E944A0B8FEB93E095CE59
:1040100080E090E0ACE8B2E48093D9069093DA06B1
:10402000A093DB06B093DC0683EB93E086CE61E7DA
:1040300073E0CE010D960E949313882319F08BE94B
:1040400093E07BCE6CE773E0CE010D960E94931354
:10405000811175CE68E873E0CE010D960E9493132E
:10406000882319F083E993E068CE60E973E0CE011C
:104070000D960E949313882319F00E946A125FCE56
:104080006BE973E0CE010D960E949313882369F0CB
:1040900020E030E045E152E42093210730932207ED
:1040A00040932307509324074ACE68EA73E0CE0179
:1040B0000D960E949313882369F080E090E0A0E3BE
:1040C000B2E48093210790932207A0932307B09333
:1040D000240735CE65EB73E0CE010D960E94931355
:1040E000882349F01092210710922207109223078B
:1040F0001092240724CE27E030E050E040E0BE01DB
:10410000635F7F4FCE0101960E94DB1463EC73E086
:10411000CE0101960E94931311E0811119C027E08E
:1041200030E050E040E0BE01635F7F4FCE01079674
:104130000E94DB146BEC73E0CE0107960E94931390
:1041400011E0811101C010E0CE0107960E94240FFA
:10415000CE0101960E94240F112309F4F0CD48E00E
:1041600050E0BE01635F7F4FCE0101960E948D1526
:10417000BE016F5F7F4FCE010D960E94A813CE0146
:1041800001960E94240FBE01635F7F4FCE01079608
:104190000E94C11450E040E0BE01695F7F4FCE0134
:1041A00001960E943015CE0101960E948813F62ECA
:1041B00060930001CE0101960E94240FCE01079664
:1041C0000E94240FBE01635F7F4FCE0107960E94BD
:1041D000C11441E050E0BE01695F7F4FCE010196FE
:1041E0000E943015CE0101960E948813162F60930D
:1041F0000101CE0101960E94240FCE0107960E9474
:10420000240FBE01635F7F4FCE0107960E94C11449
:1042100042E050E0BE01695F7F4FCE0101960E94EF
:104220003015CE0101960E948813062F609302017B
:10423000CE0101960E94240FCE0107960E94240F02
:10424000402F50E0612F70E08F2D90E00E944A0BCC
:1042500076CD27E030E050E040E0BE01635F7F4F65
:10426000CE0101960E94DB146DED73E0CE01019644
:104270000E949313182FCE0101960E94240F112340
:1042800009F4AFC0E0918E068E2F90E0FC01EE0F96
:10429000FF1FE80FF91FE856FA4F80818F7D80835A
:1042A00010928D0548E050E0BE01635F7F4FCE0164
:1042B00001960E948D15BE016F5F7F4FCE010D9656
:1042C0000E94A813CE0101960E94240FBE01635FD5
:1042D0007F4FCE0107960E94C11450E040E0BE011E
:1042E000695F7F4FCE0101960E943015CE01019685
:1042F0000E94881370936D0560936C05CE01019642
:104300000E94240FCE0107960E94240FBE01635F16
:104310007F4FCE0107960E94C11441E050E0BE01DC
:10432000695F7F4FCE0101960E943015CE01019644
:104330000E94881370936B0560936A05CE01019605
:104340000E94240FCE0107960E94240F89E090E07E
:1043500090938F0580938E0580916705813011F4CD
:10436000109267050E947C0D60E080E00E94490D7C
:1043700065EE73E08CE696E00E94151160E08BE03C
:104380000E94490D40916C0550916D0570E060E010
:104390002AE08CE696E00E943B0F61E080E00E94FC
:1043A000490D61EF73E08CE696E00E94151161E023
:1043B00087E00E94490D40916A0550916B0570E0BD
:1043C00060E02AE08CE696E00E943B0F61E08FE01F
:1043D0000E94490D69EF73E08CE696E00E9415118A
:1043E000C7CC25E030E050E040E0BE01635F7F4F86
:1043F000CE0101960E94DB146BEF73E0CE010196B3
:104400000E949313182FCE0101960E94240F1123AE
:10441000E1F046E050E0BE01635F7F4FCE010196C0
:104420000E948D15BE016F5F7F4FCE010D960E94D9
:10443000A813CE0101960E94240FBE01635F7F4F37
:1044400086E696E00E94AA1493CC25E030E050E086
:1044500040E0BE01635F7F4FCE0101960E94DB14F6
:1044600061E074E0CE0101960E949313182FCE01F3
:1044700001960E94240F112309F444C046E050E045
:10448000BE01635F7F4FCE0101960E948D15BE0174
:104490006F5F7F4FCE010D960E94A813CE0101964B
:1044A0000E94240FBE01635F7F4F80E696E00E946A
:1044B000AA14ADE0B0E0B0938F05A0938E050E94E2
:1044C0007C0D60E080E00E94490D40916A065091A9
:1044D0006B0660916606709167068CE696E00E9416
:1044E000700361E080E00E94490D409164065091A4
:1044F000650660916006709161068CE696E00E9408
:10450000700336CC24E030E050E040E0BE01635F51
:104510007F4FCE0101960E94DB1467E074E0CE016C
:1045200001960E949313182FCE0101960E94240F2A
:10453000112309F495C028E030E045E050E0BE01C9
:10454000635F7F4FCE0107960E94DB1449E050E085
:10455000BE01635F7F4FCE0101960E948D15898158
:104560009A81C12CD12C7601009721F00E94262936
:104570006B017C01CE0101960E94240FC701B60198
:104580000E94CF2F072E000C880B990B0E94152D2F
:104590006B017C01BE01695F7F4FCE0101960E94D5
:1045A000C11488E892E00E94F30F60916805709151
:1045B0006905072E000C880B990B0E94152DA70189
:1045C00096010E94F12E0E94CF2F7093690560938F
:1045D000680567397105ACF186E990E00E94B20C7C
:1045E00086E990E0909369058093680520E030E0CB
:1045F00040E251E4C701B6010E94742D0E94D62FFB
:104600000E94170681E792E00E94F30F8BE492E08C
:104610000E945D044091680550916905052E000CCB
:10462000660B770B84EB95E00E94870F8CE094E09B
:104630000E94B90FCE0101960E94240FCE01079669
:1046400090C077FF09C090E080E00E94B20C109209
:10465000690510926805CACFCB010E94B20CC6CF83
:1046600023E030E050E040E0BE01635F7F4FCE01C9
:1046700001960E94DB1460E174E0CE0101960E9475
:104680009313182FCE0101960E94240F1123F1F1EC
:1046900085E793E00E94F30F48E050E0BE01635FBE
:1046A0007F4FCE0101960E948D1589819A810097D6
:1046B00049F10E9426290E94CF2F6B017093690552
:1046C00060936805CE0101960E94240FC6010E94E6
:1046D000B20C8EE593E00E94F30F88E393E00E9412
:1046E0005D044091680550916905052E000C660B2C
:1046F000770B84EB95E00E94870F8CE094E00E949A
:10470000B90F36CB60E070E0CB01D5CF64E174E047
:10471000CE010D960E94931381112ACB28E030E040
:1047200050E040E0BE01635F7F4FCE0101960E94E2
:10473000DB1468E174E0CE0101960E949313182FF8
:10474000CE0101960E94240F112371F049E050E040
:10475000BE01635F7F4FCE0101960E948D15CE0191
:1047600001960E94240F04CB61E274E0CE010D9605
:104770000E9493138111FCCA24E030E050E040E035
:10478000BE01635F7F4FCE0101960E94DB146CE196
:1047900074E0CE0101960E949313182FCE0101966A
:1047A0000E94240F112349F128E030E045E050E059
:1047B000BE01635F7F4FCE0107960E94DB14BE01EE
:1047C000695F7F4FCE0101960E94C11486EE92E090
:1047D0000E94F30F90E080E00E94B20C64EF71E061
:1047E00080E090E00E9417068FEC92E00E94F30FA9
:1047F00086EA92E00E94F30F1DCF24E030E050E003
:1048000040E0BE01635F7F4FCE0101960E94DB1442
:1048100066E274E0CE0101960E949313182FCE0138
:1048200001960E94240F112309F4A2CA45E050E02A
:10483000BE01635F7F4FCE0101960E948D15898175
:104840009A81009709F442C00E9426296093D906F4
:104850007093DA068093DB069093DC06CE01019616
:104860000E94240F20E030E048EC52E46091D90629
:104870007091DA068091DB069091DC060E9405308B
:10488000181684F48BE193E00E94F30F80E090E02F
:10489000A8ECB2E48093D9069093DA06A093DB06E5
:1048A000B093DC0684E093E00E945D044091D90659
:1048B0005091DA066091DB067091DC0622E084EB11
:1048C00095E00E941A108BE294E019CF60E070E04E
:1048D000CB01BCCFBC0176956795F1E06F27617085
:1048E00020918E0530918F0541E051E12731350748
:1048F00009F040E0662351F1442341F180916E05B7
:10490000811121C081E090E090938F0580938E0506
:104910000E947C0D60E080E00E94490D6EE274E030
:104920008CE696E00E94151161E080E00E94490D3E
:104930006EE374E08CE696E00E94151181E294E04B
:104940000E94F30F6FCA0E946A12F8CFFC01F6951D
:10495000E795F695E795A1E0EA275E2F517044238D
:10496000E1F05523D1F080918C0581110FC090E0CA
:1049700080E00E9475111092700560E087E00E944F
:10498000EA0430920601209205014CCA30920601D9
:10499000209205010E94E31145CAFC01E095F095C3
:1049A0004E2F4170F1E02530310509F0F0E044234D
:1049B000F9F0FF23E9F08CE090E090938F0580936D
:1049C0008E050E947C0D60E080E00E94490D6EE43F
:1049D00074E08CE696E00E94151161E080E00E9490
:1049E000490D66E272E08CE696E00E9415111ACA43
:1049F000E1E02C30310509F0E0E0442329F0EE231A
:104A000019F00E94B3110ECA71E02E30310509F081
:104A100070E0442329F0772319F00E94411102CA63
:104A2000A3E096958795AA95E1F7B1E08B27817071
:104A3000FF2329F0882319F00E946A12F3C991E03C
:104A40002830310509F090E0442329F0992319F02A
:104A50000E943511E7C9882311F09111F9CF2B304D
:104A6000310529F4882319F010928205E5CF293009
:104A7000310511F5882301F188E594E00E94B90F12
:104A80000E947C0D6091030170E06F5F7F4F90E0AA
:104A900080E00E94CC0F60E080E00E94490D6FE54D
:104AA00074E08CE696E00E94151160EA7FE080E0F9
:104AB00090E00E941706C0CF91E02630310509F042
:104AC00090E0662341F0992331F0809103018F5FDC
:104AD00080930301A2CF552331F0992321F08091D7
:104AE00003018150F5CF662369F0772359F0809157
:104AF0006F05813019F410926F0583CF81E08093A8
:104B00006F057FCF552311F07111F1CF442339F098
:104B1000992329F090E080E00E94181383C988232C
:104B200011F0911137CFEE2311F0811133CF91E0C5
:104B30002130310509F090E0662399F0992389F03E
:104B400086E194E00E94F30F20E030E045E152E47A
:104B50002093210730932207409323075093240783
:104B60006BCF552379F0992369F080E090E0A0E3C2
:104B7000B2E48093210790932207A0932307B09378
:104B800024075ACF51E02230310509F050E0442388
:104B900099F0552389F080918C058111F7CE109200
:104BA000810590E080E00E94751160E087E00E943E
:104BB000EA0410927005E5CE882359F1552339F1A6
:104BC00080918C05811110C090E080E00E947511E9
:104BD00060E087E00E94EA0430920601209205011D
:104BE00081E0809370051EC9309206012092050174
:104BF00084E090E090938F0580938E050E947C0D59
:104C000060E081E00E94490D6DE674E0E2CE911112
:104C100013CF91E02430310509F090E0442311F0E6
:104C200091110ACF882311F0911106CF2D30310553
:104C300009F0F8C8882309F4F5C888E594E00E94D3
:104C4000B90FFACE072E000C880B990B0E94152D78
:104C50009B01AC01C301B2010E945D2F6B017C017D
:104C6000BC01A601CE0101960E946C146EE774E0AF
:104C7000CE0107960E94CA144D815E8169817A81B6
:104C8000CE0107960E940914811104C0CE01079637
:104C90000E94120F60EA74E0CE0107960E9435145C
:104CA0000E940310CE0107960E94240FCE010196A8
:104CB0000E94240FB12CA12C10E0809178058A1558
:104CC0001B0499F194F1F40141905190619071901D
:104CD0004F0120E030E048E452ECC301B2010E94F1
:104CE0000E2D87FF0AC089EA94E00E94F30F70E05E
:104CF00060E08AE00E94950511E020E030E04AEA99
:104D000052E4C301B2010E940E2D81110AC086E84F
:104D100094E00E94F30F70E060E08AE00E94950545
:104D200011E0FFEFAF1ABF0AC8CF111114C2C09231
:104D30002907D0922A07E0922B07F0922C0720E057
:104D400030E044E252E4C701B6010E940530181673
:104D500034F481E08093820582E080938005809125
:104D60008005823071F420E030E044E252E4C70173
:104D7000B6010E940E2D87FF04C01092820510928A
:104D8000800580916707882321F08DE297E00E94DB
:104D9000A1096091250770912607809127079091BE
:104DA00028070E94CF2F8AE00E94950582E794E0B1
:104DB0000E945D0460912507709126078091270766
:104DC000909128070E94001180918005813021F484
:104DD000109282051092800581E08093780586EA22
:104DE00096E00E943C0960E086EA96E00E948D0D04
:104DF000A98DBA8D6D937D938D939C93139720E02D
:104E000030E0A9010E94F12E6B017C01BC01A601DA
:104E1000CE0101960E946C146FE874E0CE010796F3
:104E20000E94CA144D815E8169817A81CE01079604
:104E30000E940914811104C0CE0107960E94120F2E
:104E40006FE974E0CE0107960E9435140E940310AA
:104E5000CE0107960E94240FCE0101960E94240FD6
:104E600020E030E048E452ECC701B6010E940E2D6C
:104E700087FD77C1C092E106D092E206E092E30698
:104E8000F092E40680911F07882321F085EE96E0DA
:104E90000E94A1096091DD067091DE068091DF0617
:104EA0009091E0060E94CF2F83E00E9495058DE54A
:104EB00094E00E945D046091DD067091DE068091B1
:104EC000DF069091E0060E940011EB8DFC8D0FB67D
:104ED000F894FEBF0FBEEDBF8091070190910801CD
:104EE000181619060CF047C1059790930801809396
:104EF00007018091050190910601181619060CF022
:104F00004FC1059790930601809305010E944A06C0
:104F1000609390057093910580939205909393050B
:104F20000E944A06009188051091890520918A0502
:104F300030918B05601B710B820B930B653F7140A9
:104F40008105910580F180918E0590918F050A97DA
:104F500069F48091870590E00E9475118091870522
:104F60008F5F833009F437C18093870580918E0568
:104F700090918F05079769F48091870590E00E94D2
:104F80001813809187058F5F843009F427C18093BF
:104F900087050E944A06609388057093890580936F
:104FA0008A0590938B050E944A0600918305109113
:104FB00084052091850530918605601B710B820B5D
:104FC000930B61367A4E8105910508F468C0809193
:104FD0008205813071F480918E0590918F05029742
:104FE00041F40E94FF114CE350E0509308014093BC
:104FF000070180918E0590918F050A97D1F48091D9
:105000008105833089F411E0109382058093800537
:105010000E94FF110E945B088CE390E090930801CE
:105020008093070110930401809181058F5F809325
:10503000810520E030E040EF51E460912507709158
:10504000260780912707909128070E940E2D87FF41
:1050500018C062E370E08AE00E94950562E370E0A8
:1050600080E090E00E941706609125077091260766
:1050700080912707909128070E94CF2F8AE00E94F5
:10508000950587ED94E00E94F30F0E944A06609315
:1050900083057093840580938505909386050E940F
:1050A0004A0600917C0510917D0520917E05309186
:1050B0007F05601B710B820B930B613E734984402B
:1050C0009105C8F120E030E048EC52E460912907F6
:1050D00070912A0780912B0790912C070E94742DC4
:1050E0000E94CF2F80917A0590917B050E94CC0F72
:1050F00080917A0590917B05029690937B05809331
:105100007A058CEC94E00E94F30F0E944A066093AB
:105110007C0570937D0580937E0590937F0580913B
:1051200079058F3040F010922107109222071092DB
:1051300023071092240780E090E0892B11F40C944F
:10514000F81C0E94DA03882311F40C94F41C0E94CA
:1051500000000C94F41C81E080938205809380050C
:105160003BCE8BE394E00E94F30F70E060E083E0BD
:105170000E949505AACE81EE94E00E94F30FE09183
:105180008E068E2F90E0FC01EE0FFF1FE80FF91F37
:10519000E856FA4F80818F7D808310928D05A9CECD
:1051A00061E087E00E94EA041092D9061092DA06C4
:1051B0001092DB061092DC061092040110928C050E
:1051C00050E040E070E060E090E080E00E944A0B38
:1051D0000E946A129BCE10928705C8CE81E0D7CE7E
:1051E00080E696E00E94240F86E696E00E94240F57
:1051F00080918106909182060E94E03080917E0627
:1052000090917F0697FD03C060E00C941805089507
:10521000EF920F931F93CF93DF93E80134E047FDA4
:1052200034E1042E000C550B57FF03C051954195F6
:105230005109E32E022F242FAE010E946629CE01D0
:10524000DF91CF911F910F91EF90089566277727F7
:105250000C94C52A1F93FC0199278827BC01E89468
:1052600011911032E9F3193010F01E30C8F31B32DF
:1052700051F01D3249F4689406C00E945129610F13
:10528000711D811D911D119110531A30B0F33EF420
:1052900090958095709561957F4F8F4F9F4F1F918F
:1052A0000895592F482F372F262F660F771F881FF5
:1052B000991F660F771F881F991F620F731F841F26
:1052C000951F660F771F881F991F0895A9E0B0E00A
:1052D000ECE6F9E20C948E2E6A01F22EB02E102F1D
:1052E000FBE3AF2EA01608F41BE31F5F012F27E09E
:1052F000AE014F5F5F4F0E94152CBC018981982F32
:105300009970913009F43FC09BE2E1FC04C09E2DEE
:105310009170E0FC3AC05E2D5071E82FE87083FF79
:1053200046C084E0911101C083E0EF2DE81B8F158A
:1053300008F0E0E0D6018E2F20E2552351F19923A9
:1053400029F0D6019C93C60101966C0196012D5F50
:105350003F4FE2FE24C08EE4D6018C9391E4119677
:105360009C93119712968C93D9018E2F90E2811104
:105370001BC0E20FF32FF11D10828EEF9FEF2996D5
:10538000ECE00C94AA2E9DE2C6CF90E2C4CF2D9300
:1053900081508111FCCFCE0ED11CE0E0D0CF8EE643
:1053A000D6018C9391E6DBCF9D938150E0CF482FBF
:1053B000447082FF3DC084E0911101C083E08F15ED
:1053C00010F4EF2DE81BD6018E2F20E2552309F1B2
:1053D000992329F0D6019C93C60101966C01960190
:1053E0002D5F3F4FE2FE1BC089E4D6018C938EE413
:1053F00011968C93119786E412968C93D9018E2F77
:1054000090E2882309F4B5CF9D938150FACF2D9374
:1054100081508111FCCFCE0ED11CE0E0D9CF89E6BE
:10542000D6018C938EE611968C93119786E6E4CF85
:105430009B0177FF02C030E020E0A1E0B0E09111D5
:1054400002C0B0E0A0E0F9013196AE0FBF1F8B2C77
:10545000912CBB2009F461C05401EFEFAE1ABE0AD3
:10546000AA0DBB1DFA161B0619F014F04F2D4A1B8E
:10547000511188C0E3FC59C07601A42FB0E2A111FC
:105480004FC0C40ED11C992309F45BC040E0D60183
:105490001196F60190836D01552309F448C0012F40
:1054A000060F9A81582F507184FF03C0913309F47D
:1054B000015010160CF047C0093008F008E0EEE289
:1054C000FE2E5B01A01AB108850191948194910888
:1054D0002F3F320729F4D601FC92F60131966F0175
:1054E0006217730794F1021713077CF5DB01A21B07
:1054F000B30BAA24A394B12CAC0EBD1EAA0DBB1DE8
:1055000011968C9121503109D60111962815390533
:10551000F4F0F60180836D01DBCFB12CA12CA0CF7C
:10552000F701B1937F01A150AACF9111B0CFD6015D
:10553000942F50E302C05D9391509111FCCFC40EA3
:10554000D11C40E0ACCF01E0BACF80E3DBCF6217E3
:10555000730731F4963388F4953311F4552369F0C9
:10556000F6018083FD01842F90E2811108C0A40F11
:10557000B11D1C9290E080E002CF81E3F1CF9193C6
:105580008150F3CF911183CF8ACFB0E0A0E0EBEC54
:10559000FAE20C948E2E5C017B016115710519F005
:1055A000DB018D939C9385010F5F1F4FF501D08127
:1055B0008D2F90E00E94ED2C6C01892BB9F5DD3226
:1055C000B9F50F5F1F4FD5011196DC91C1E058016D
:1055D000F1E0AF1AB10843E050E060E770E0C501C8
:1055E0000E94F62C892B69F5680182E0C80ED11C57
:1055F00045E050E06BE670E0C6010E94F62C892B76
:1056000021F4680197E0C90ED11CE114F10419F0EE
:10561000D701CD92DC9260E070E080E89FEFC1118D
:10562000FFC060E070E080E89FE7FAC05801BBCFA0
:10563000DB3229F485010E5F1F4FF501D181C0E0F7
:10564000C6CF43E050E068E670E0C5010E94F62C4A
:10565000892BE9F0F80110E000E020E030E0A9013A
:105660005F01B0ED8B2E8D0E89E08815C8F19C2E60
:10567000689491F88C2F8870C2FF16C0811102C007
:105680000F5F1F4F3196D501DC91C92DE9CFE11491
:10569000F10429F00E5F1F4FF7011183008360E0D2
:1056A00070E080EC9FE7BCC0882311F00150110925
:1056B000A5E0B0E00E947D2E9B01AC01220F331FBC
:1056C000441F551F280D311D411D511D283999E9D1
:1056D0003907490799E15907A8F2C6609C2ED2CF35
:1056E000AEEF8A1206C0C3FD3CC09C2E689493F8AE
:1056F000C9CFDF7DD534A9F580818D3239F4C06101
:10570000DF011296818162E070E006C0DF018B321A
:10571000C1F3119661E070E080535D01A61AB70AEB
:105720008A30F8F4E0E8CE16ECE0DE065CF4B60170
:10573000660F771F660F771FC60ED71ECC0CDD1CB9
:10574000C80ED11C5D01FFEFAF1ABF0A8C918053C8
:105750008A30A8F1C4FF03C0D194C194D1080C0DC4
:105760001D1DC1FF09C0E114F10431F081E0A81A48
:10577000B108D701AD92BC92CA01B9010E94132DA4
:10578000C370C33009F490584B015C0120E030E055
:10579000A9010E940E2D882309F440C0CFE9D0E072
:1057A00017FF05C0119501951109C7E8D0E06E01FA
:1057B000B8E1CB1AD10880E2E82EF12C0FC0D50158
:1057C000B1CFFE0125913591459154910E191F09D4
:1057D000C501B4010E94742D4B015C01D501C401C7
:1057E0000E151F0574F72497F594E794CC16DD0683
:1057F000A9F78A2F880F8B2F881F8F3F49F020E051
:1058000030E0A901C501B4010E940E2D811106C02E
:1058100082E290E090936A0780936907C501B40122
:10582000CDB7DEB7ECE00C94AA2E283008F027E0C4
:105830003327DA01990F311D87FD916000966105CC
:10584000710539F432602E5F3D9330E32A95E1F71C
:1058500008959F3F30F080387105610509F03C5F85
:105860003C5F3D93913008F08068911DDF93CF93AA
:105870001F930F93FF92EF92192F987F9695E92F20
:1058800096959695E90FFF27E350FF4F9927332709
:10589000EE24FF24A701E70105900894079428F45B
:1058A000360FE71EF81E491F511D660F771F881F10
:1058B000991F0694A1F70590079428F4E70EF81EA7
:1058C000491F561FC11D770F881F991F661F069419
:1058D000A1F70590079428F4F80E491F561FC71F1B
:1058E000D11D880F991F661F771F0694A1F7059099
:1058F000079420F4490F561FC71FD81F990F661F22
:10590000771F881F0694A9F784911095177041F0AE
:10591000D695C79557954795F794E7941A95C1F78B
:10592000E3EAF0E0689415901591359165919591B1
:1059300005907FE27395E118F10A430B560BC90BF2
:10594000D009C0F7E10CF11E431F561FC91FD01D1F
:105950007EF4703311F48A95E6CFE894015030F06C
:10596000080F0AF40027021708F4202F2395022FAE
:105970007A3328F079E37D932A95E9F710C07D9377
:105980002A9589F6069497956795379517951794F4
:10599000E118F10A430B560BC90BD00998F0239577
:1059A0007E9173957A3308F070E37C932013B8F7F7
:1059B0007E9170617D9330F0839571E37D9370E308
:1059C0002A95E1F71124EF90FF900F911F91CF914D
:1059D000DF91992787FD9095089591110C94E12D01
:1059E000803219F089508550C8F70895FB01DC0119
:1059F0004150504088F08D9181341CF08B350CF46F
:105A0000805E659161341CF06B350CF4605E861B22
:105A1000611171F3990B0895881BFCCF0E94502DE2
:105A200008F481E00895E89409C097FB3EF490954E
:105A30008095709561957F4F8F4F9F4F9923A9F067
:105A4000F92F96E9BB279395F695879577956795F6
:105A5000B795F111F8CFFAF4BB0F11F460FF1BC03A
:105A60006F5F7F4F8F4F9F4F16C0882311F096E9CD
:105A700011C0772321F09EE8872F762F05C066237B
:105A800071F096E8862F70E060E02AF09A95660F34
:105A9000771F881FDAF7880F9695879597F90895ED
:105AA000990F0008550FAA0BE0E8FEEF161617062F
:105AB000E807F907C0F012161306E407F50798F097
:105AC000621B730B840B950B39F40A2661F0232BB0
:105AD000242B252B21F408950A2609F4A140A6952C
